:100000000C9438000C944D000C944D000C944D0051
:100010000C944D000C944D000C944D000C944D002C
:100020000C944D000C944D000C944D000C944D001C
:100030000C944D000C944D000C944D000C944D000C
:100040000C944D000C944D000C944D000C944D00FC
:100050000C944D000C944D000C944D000C944D00EC
:100060000C944D000C944D000C944D000C944D00DC
:1000700011241FBECFEFD4E0DEBFCDBF11E0A0E062
:10008000B1E0E2ECF0E002C005900D92A230B107C1
:10009000D9F70E944F000C945F000C94000080E29E
:1000A00081BB90E282B3892782BB2FEF3FE781E0DB
:1000B000215030408040E1F700C000C0F3CFF894F9
:0200C000FFCF70
:0200C20020001C
:00000001FF
