S00D00006E6F6465312E7372656340
S11300000C9438000C9442000C9442000C9442006E
S11300100C9442000C9442000C9442000C94420054
S11300200C9442000C9442000C9442000C94420044
S11300300C9442000C9442000C9442000C94420034
S11300400C9442000C9442000C9442000C94420024
S11300500C9442000C9442000C9442000C94420014
S11300600C9442000C9442000C9442000C94420004
S113007011241FBECFEFD4E0DEBFCDBF0E945400D9
S11300800C945E000C940000179BFECF83B108957E
S11300901CBE8FEF80B988E181B98CE88CBF0895CC
S11300A0159BFECF83B908950E94480086E60E94FE
S11300B0500084E490E00E945000FBCFF894FFCFFE
S9030000FC
